:10000000F07F0010E1080000350900003D09000004
:10001000450900004D0900005509000000000000DE
:10002000000000000000000000000000CD0B0000F8
:100030005D09000000000000AD0C0000E90C0000AC
:1000400065090000650900006509000065090000F8
:1000500065090000650900006509000065090000E8
:1000600065090000650900006509000065090000D8
:1000700065090000650900006509000065090000C8
:1000800065090000650900006509000065090000B8
:1000900065090000650900006509000065090000A8
:1000A0006509000065090000650900006509000098
:1000B0006509000065090000650900006509000088
:1000C000650900006509000080B588B004AF00F044
:1000D0003DF8134B4FF0010200924FF000020192E5
:1000E0004FF0000202924FF0000203920D481946B1
:1000F0004FF050024FF0000301F0C0FB3B464FF0C1
:10010000000200924FF0C9020192184606494FF0D2
:10011000C0024FF0A80300F0A3FB01F0FFFEFEE7D2
:1001200088320000E50300008C32000080B400AF8C
:10013000BD4680BC704700BF80B400AF024B1B6857
:100140001846BD4680BC70470000001080B500AF67
:100150007A4B4FF00002C3F8C420784B4FF40042B2
:10016000C3F8C420764B4FF000029A62734BD3F869
:10017000883003F00073002B0ED0704B4FF001025B
:10018000C3F880206D4B4FF0AA02C3F88C206B4B54
:100190004FF05502C3F88C20684B4FF00002C3F8B3
:1001A0008020664B4FF0AA02C3F88C20634B4FF0BF
:1001B0005502C3F88C20614B604AD2F8A02142F06E
:1001C0002002C3F8A02100BF5C4BD3F8A03103F09C
:1001D0004003002BF8D0594B4FF00102C3F80C211B
:1001E000564B584AC3F88420544B4FF0AA02C3F828
:1001F0008C20524B4FF05502C3F88C204F4B4FF0E0
:100200000102C3F880204D4B4FF0AA02C3F88C20A6
:100210004A4B4FF05502C3F88C20484B4FF0030275
:10022000C3F80421454B44F23A021A6000BF434B25
:10023000D3F8883003F08063002BF8D03F4B4FF0A9
:100240000302C3F880203D4B4FF0AA02C3F88C2074
:100250003A4B4FF05502C3F88C2000BF374BD3F810
:10026000883003F00073002BF8D0344BD3F8A8305B
:1002700003F40073002B0ED0304B4FF00102C3F893
:10028000A0202E4B4FF0AA02C3F8AC202B4B4FF00E
:100290005502C3F8AC20294B4FF00002C3F8A02050
:1002A000264B4FF0AA02C3F8AC20244B4FF0550266
:1002B000C3F8AC20214B4FF02302C3F8A4201F4BFE
:1002C0004FF0AA02C3F8AC201C4B4FF05502C3F804
:1002D000AC201A4B4FF00102C3F8A020174B4FF08F
:1002E000AA02C3F8AC20154B4FF05502C3F8AC205E
:1002F00000BF124BD3F8A83003F48063002BF8D072
:100300000E4B4FF00302C3F8A0200C4B4FF0AA0293
:10031000C3F8AC20094B4FF05502C3F8AC2000BF26
:10032000064BD3F8A83003F40073002BF8D0034B2E
:10033000054AC3F8A82100F009F880BD00C00F40AD
:1003400000C00240310002005555550580B400AF91
:10035000054B4FF000721A60034B4FF00072DA61E8
:10036000BD4680BC704700BF60C0092080B483B028
:1003700000AF78603960FEE780B485B000AF4FF021
:100380000203FB604FF00003BB604FF001037B6092
:10039000134B134AD2F8C42042F00202C3F8C4201F
:1003A0000F4B0F4AD2F8A82122F00C0242F00402AF
:1003B000C3F8A8214FF04023FA685A604FF0402359
:1003C000BA681A674FF0402342F2AB62DA604FF02E
:1003D00040237A685A6007F11407BD4680BC704715
:1003E00000C00F4080B584B000AF786001F076FEA9
:1003F0000346FB6007F10C0318464FF47A7101F0D5
:1004000043FB084B4FF00072DA6107F10C0318460A
:100410004FF47A7101F038FB024B4FF000729A6191
:10042000E8E700BF60C0092080B483B000AF786007
:1004300039607B68002B0AD07B681B683A68D2B2AF
:100440001A707B681B6803F101027B681A6007F170
:100450000C07BD4680BC70472DE9F04184B000AF69
:10046000F860B9607A603B604FF000044FF02006FE
:100470007B68002B1DDD4FF00005D7F8088003E0F6
:1004800005F1010508F1010898F80030002BF7D1BB
:100490007B689D4203DB4FF000037B6002E07B68DA
:1004A0005B1B7B603B6803F00203002B01D04FF025
:1004B00030063B6803F00103002B1BD109E0F8680C
:1004C0003146FFF7B1FF04F101047B6803F1FF330C
:1004D0007B607B68002BF2DC0DE0BB681B78F86862
:1004E0001946FFF7A1FF04F10104BB6803F1010302
:1004F000BB6000E000BFBB681B78002BEDD109E0BA
:10050000F8683146FFF790FF04F101047B6803F1BE
:10051000FF337B607B68002BF2DC2346184607F133
:100520001007BD46BDE8F0812DE9F04389B000AF6A
:10053000F860B9607A603B604FF000094FF0000846
:10054000BD68BB68002B0FD14FF030033B754FF0F7
:1005500000037B7507F11403F86819463A6C7B6C4D
:10056000FFF77AFF034653E03B68002B0BD07B6814
:100570000A2B08D1BB68002B05DA4FF00109BB68D4
:10058000C3F100031D4607F1140303F10B044FF000
:100590000003237016E07B68B5FBF3F203FB02F364
:1005A000EB1A1E46092E03DDBB6CA3F13A03F618C5
:1005B00004F1FF34F3B203F13003DBB223707B6844
:1005C000B5FBF3F5002DE6D1B9F1000F18D03B6C67
:1005D000002B10D07B6C03F00203002B0BD0F868CB
:1005E0004FF02D01FFF720FF08F101083B6C03F1EC
:1005F000FF333B6404E004F1FF344FF02D0323701C
:10060000F86821463A6C7B6CFFF726FF03464344AB
:10061000184607F12407BD46BDE8F0832DE9F041F7
:100620008AB004AFF860B9607A604FF00004E8E087
:10063000BB681B78252B40F0D880BB6803F1010311
:10064000BB604FF000063546BB681B78002B00F0FE
:10065000DE80BB681B78252B00F0C680BB681B784A
:100660002D2B0DD1BB6803F10103BB604FF00106D8
:1006700007E0BB6803F10103BB6046F0020600E03F
:1006800000BFBB681B78302BF3D00FE02B464FEA3E
:1006900083035B194FEA43031D46BB681B78A3F134
:1006A0003003ED18BB6803F10103BB60BB681B7826
:1006B0002F2B03D9BB681B78392BE7D9BB681B7874
:1006C000732B14D17B6803F104027A601B6898468F
:1006D000B8F1000F01D0434600E0554BF8681946C9
:1006E0002A463346FFF7B8FE0346E41885E0BB68A8
:1006F0001B78642B14D17B6803F104027A601B68B9
:10070000009501964FF061020292F86819464FF089
:100710000A024FF00103FFF707FF0346E4186CE0FD
:10072000BB681B78782B14D17B6803F104027A60D4
:100730001B68009501964FF061020292F868194615
:100740004FF010024FF00003FFF7EEFE0346E418EF
:1007500053E0BB681B78582B14D17B6803F104026B
:100760007A601B68009501964FF041020292F8688A
:1007700019464FF010024FF00003FFF7D5FE034675
:10078000E4183AE0BB681B78752B14D17B6803F141
:1007900004027A601B68009501964FF06102029294
:1007A000F86819464FF00A024FF00003FFF7BCFE4D
:1007B0000346E41821E0BB681B78632B1DD17B68DE
:1007C00003F104027A601B68DBB23B754FF0000353
:1007D0007B7507F11403F86819462A463346FFF77C
:1007E0003BFE0346E41808E000BFBB681B78F868CE
:1007F0001946FFF719FE04F10104BB6803F1010378
:10080000BB60BB681B78002B7FF412AF00E000BF19
:10081000FB68002B04D0FB681B684FF000021A70C5
:100820002346184607F11807BD46BDE8F08100BF12
:10083000983200000FB480B582B000AF07F1140306
:100840007B604FF0000039697A68FFF7E7FE0346E6
:10085000184607F10807BD46BDE8804004B0704760
:100860000EB480B585B000AF786007F12003FB605F
:1008700007F104031846F969FA68FFF7CFFE03464B
:10088000184607F11407BD46BDE8804003B0704725
:100890000CB480B584B000AF7860396007F11C03F8
:1008A000FB6007F104031846B969FA68FFF7B6FE62
:1008B0000346184607F11007BD46BDE8804002B068
:1008C000704700BF80B485B000AFF860B9607A604F
:1008D0004FF00003184607F11407BD4680BC70476F
:1008E00080B582B000AF104B7B60104B3B600BE0DB
:1008F0007B681A683B681A603B6803F104033B603D
:100900007B6803F104037B603A68094B9A42EFD39A
:10091000164817494FF000028842B8BF40F8042B30
:10092000FADBFFF7D1FBFEE70C33000000000010FC
:100930001000001080B400AFFEE700BF80B400AF2D
:10094000FEE700BF80B400AFFEE700BF80B400AF99
:10095000FEE700BF80B400AFFEE700BF80B400AF89
:10096000FEE700BF80B400AFFEE7000010000010FB
:10097000EC4D001080B58AB000AF78604FF00003F6
:10098000FB6101F013FB4C4B1B68002B1BD14B4A46
:100990004B4B1A604A4B4FF000025A60494B4FF4E0
:1009A00098425A60474B4FF000021A60434B7B61FC
:1009B0007B694FF498425A607B69424A1A603E4B09
:1009C0004FF001021A607B68002B0FD03E4B1B8852
:1009D0007A68D3187B607B6803F00703002B05D08F
:1009E0007B6823F0070303F108037B607B68002B1F
:1009F0005AD07A6844F6FF339A4255D8304B3B625E
:100A00002F4B1B687B6204E07B6A3B627B6A1B683E
:100A10007B627B6A5A687B689A4203D27B6A1B6856
:100A2000002BF1D17A6A274B9A423DD03B6A1A6873
:100A3000254B1B88D318FB617B6A1A683B6A1A60D6
:100A40007B6A5A687B68D21A1F4B1B884FEA4303A4
:100A50009A4222D97A6A7B68D3183B617B6A5A68CA
:100A60007B68D21A3B695A607B6A7A685A603B6934
:100A70005B68FB60124BBB6102E0BB691B68BB613A
:100A8000BB691B685A68FB689A42F6D3BB691A684F
:100A90003B691A60BB693A691A600C4B1A687B6A39
:100AA0005B68D21A094B1A6001F08EFAFB6918468E
:100AB00007F12807BD4680BD284C00101800001023
:100AC000184C0010204C0010A03200000400001050
:100AD00080B586B000AF78607B683B617B68002B97
:100AE00029D0174B1B88C3F100033A69D3183B6127
:100AF0003B69FB6001F05AFAFB685B68BB60114B15
:100B00007B6102E07B691B687B617B691B685A68BB
:100B1000BB689A42F6D37B691A68FB681A607B69E6
:100B2000FA681A60FB685A68074B1B68D218064BB4
:100B30001A6001F049FA07F11807BD4680BD00BFF1
:100B4000A0320000184C00100400001080B400AF68
:100B5000024B1B681846BD4680BC7047040000105D
:100B600080B400AFBD4680BC704700BF80B485B084
:100B700000AFF860B9607A60FB68A3F10403FB6022
:100B8000FB684FF080721A60FB68A3F10403FB60FE
:100B9000BA68FB681A60FB68A3F10403FB60FB689A
:100BA0004FF000021A60FB68A3F11403FB607A683F
:100BB000FB681A60FB68A3F12003FB60FB68184622
:100BC00007F11407BD4680BC704700BF064B19688B
:100BD0000868B0E8F00F80F309884FF0000080F358
:100BE00011884EF00D0E7047304C001054480068CC
:100BF000006880F3088862B600DF00BF80B500AFF0
:100C00000B4B0B4A126842F478021A60084B084AF0
:100C1000126842F078421A6000F080F8054B4FF0FD
:100C200000021A60FFF7E2FF4FF00003184680BD94
:100C300020ED00E00800001080B400AFBD4680BC8D
:100C4000704700BF80B400AF034B4FF080521A6072
:100C5000BD4680BC704700BF04ED00E080B400AF2B
:100C60004FF0280080F31188044B1B6803F1010248
:100C7000024B1A60BD4680BC704700BF08000010E0
:100C800080B400AF084B1B6803F1FF32064B1A60BB
:100C9000054B1B68002B03D14FF0000080F3118837
:100CA000BD4680BC704700BF08000010EFF309800C
:100CB0000C4B1A6820E9F00F10602DE908404FF046
:100CC000280080F3118801F0EBFB4FF0000080F367
:100CD0001188BDE8084019680868B0E8F00F80F393
:100CE00009887047304C001080B582B000AF0A4BC5
:100CF0004FF080521A604FF000037B604FF02800E5
:100D000080F3118801F02CFB4FF0000080F3118874
:100D100007F10807BD4680BD04ED00E080B400AFD8
:100D2000044B054A1A60054B4FF007021A60BD4696
:100D300080BC704714E000E0B782010010E000E0E2
:100D400008ED00E080B483B000AF78607B6803F109
:100D500008031A467B685A607B684FF0FF329A603E
:100D60007B6803F108031A467B68DA607B6803F14D
:100D700008031A467B681A617B684FF000021A600C
:100D800007F10C07BD4680BC704700BF80B483B03C
:100D900000AF78607B684FF000021A6107F10C0722
:100DA000BD4680BC704700BF80B485B000AF78609E
:100DB00039607B685B68FB60FB685A683B685A6017
:100DC0007B685A683B689A60FB685B683A689A601F
:100DD0003A68FB685A603A687B685A603B687A6890
:100DE0001A617B681B6803F101027B681A6007F1D6
:100DF0001407BD4680BC704780B485B000AF7860F2
:100E000039603B681B68BB60BB68B3F1FF3F03D12F
:100E10007B681B69FB600DE07B6803F10803FB60E6
:100E200002E0FB685B68FB60FB685B681A68BB6894
:100E30009A42F6D9FB685A683B685A603B685B681F
:100E40003A689A603B68FA689A603A68FB685A6048
:100E50003B687A681A617B681B6803F101027B6852
:100E60001A6007F11407BD4680BC704780B485B096
:100E700000AF78607B685B687A6892689A607B688C
:100E80009B687A6852685A607B681B69FB60FB68E4
:100E90005A687B689A4203D17B689A68FB685A60FB
:100EA0007B684FF000021A61FB681B6803F1FF3298
:100EB000FB681A6007F11407BD4680BC704700BF8D
:100EC00080B588B000AFF860B9601346FB714FF091
:100ED0000003FB61FB68002B5AD04FF05000FFF776
:100EE00049FD0346BB61BB69002B51D0FB68BA6862
:100EF00002FB03F303F101037B617869FFF73AFD1D
:100F000003461A46BB691A60BB691B68002B3CD0BC
:100F1000BB691A68FB68B96801FB03F3D218BB69A7
:100F20005A60BB694FF000029A63BB691A68BB69DB
:100F30009A60BB691A68FB6803F1FF33B96801FB6B
:100F400003F3D218BB69DA60BB69FA68DA63BB697C
:100F5000BA681A64BB694FF0FF325A64BB694FF03C
:100F6000FF329A64BB69FA7983F84D20BB6903F1BB
:100F700010031846FFF7E6FEBB6903F12403184689
:100F8000FFF7E0FEBB69FB6102E0B869FFF7A0FD77
:100F9000FB69184607F12007BD4680BD80B584B0C7
:100FA00000AF0346FB714FF05000FFF7E3FC034630
:100FB000FB60FB68002B3CD0FB684FF000025A60DE
:100FC000FB684FF000021A60FB684FF000029A6065
:100FD000FB684FF00002DA60FB684FF000029A6392
:100FE000FB684FF00102DA63FB684FF000021A64FD
:100FF000FB684FF0FF325A64FB684FF0FF329A648F
:10100000FB68FA7983F84D20FB6803F1100318465A
:10101000FFF798FEFB6803F124031846FFF792FEE2
:10102000F8684FF000014FF000024FF0000300F0AD
:1010300061F8FB68184607F11007BD4680BD00BF88
:1010400090B585B000AF78607B685C6801F038FED1
:1010500003469C4216D17B68DB6803F1FF327B6854
:10106000DA607B68DB68002B08D178684FF00001FC
:101070004FF000024FF0000300F03CF84FF0010386
:10108000FB6002E04FF00003FB60FB68184607F1CD
:101090001407BD4690BD00BF90B585B000AF786025
:1010A00039607B685C6801F00BFE03469C4209D105
:1010B0007B68DB6803F101027B68DA604FF00103B3
:1010C000FB6011E078684FF000013A684FF00003D0
:1010D00000F0E8F8F860FB68012B05D17B68DB685D
:1010E00003F101027B68DA60FB68184607F1140718
:1010F000BD4690BD80B588B000AFF860B9607A6039
:101100003B604FF00003FB6100E000BFFFF7A6FD6E
:10111000FB689A6BFB68DB6B9A4218D2F868B96877
:101120003A6800F02DFAFB685B6A002B0AD0FB6876
:1011300003F12403184601F079FA0346012B01D18B
:10114000FFF780FDFFF79CFD4FF001035DE07B683A
:10115000002B04D1FFF794FD4FF0000355E0FB692D
:10116000002B07D107F11403184601F0B9FA4FF02C
:101170000103FB61FFF784FD00F018FFFFF76EFD30
:10118000FB685B6CB3F1FF3F03D1FB684FF00002DB
:101190005A64FB689B6CB3F1FF3F03D1FB684FF0CF
:1011A00000029A64FFF76CFD07F1140207F10403D3
:1011B0001046194601F0AAFA0346002B1ED1F86822
:1011C00000F0E0FA0346002B12D0FB6803F1100296
:1011D0007B681046194601F0F5F9F86800F05AFAF4
:1011E00000F0F2FE0346002B8FD1FFF72BFD8DE7B9
:1011F000F86800F04FFA00F0E7FE87E7F86800F0C3
:1012000049FA00F0E1FE4FF00003184607F120070D
:10121000BD4680BD80B586B000AFF860B9607A6029
:101220003B604FF000033B614FF0280080F31188D2
:10123000FB689A6BFB68DB6B9A4225D2F868B96849
:101240003A6800F09DF9FB689B6CB3F1FF3F11D148
:10125000FB685B6A002B13D0FB6803F1240318467C
:1012600001F0E4F90346002B0AD07B684FF001023D
:101270001A6005E0FB689B6C03F10102FB689A644D
:101280004FF001037B6102E04FF000037B614FF000
:10129000000080F311887B69184607F11807BD46E6
:1012A00080BD00BF80B588B000AFF860B9607A60DB
:1012B0003B604FF00003FB6100E000BFFFF7CEFC96
:1012C000FB689B6B002B40D0FB68DB68BB61F86858
:1012D000B96800F0B7F93B68002B1FD1FB689B6B26
:1012E00003F1FF32FB689A63FB681B68002B05D192
:1012F00001F0E6FC03461A46FB685A60FB681B696E
:10130000002B1DD0FB6803F11003184601F08EF985
:101310000346012B14D1FFF795FC11E0FB68BA6975
:10132000DA60FB685B6A002B0AD0FB6803F12403D8
:10133000184601F07BF90346002B01D0FFF782FC31
:10134000FFF79EFC4FF001036BE07B68002B04D19C
:10135000FFF796FC4FF0000363E0FB69002B07D119
:1013600007F11003184601F0BBF94FF00103FB61D0
:10137000FFF786FC00F01AFEFFF770FCFB685B6C61
:10138000B3F1FF3F03D1FB684FF000025A64FB68E2
:101390009B6CB3F1FF3F03D1FB684FF000029A64EE
:1013A000FFF76EFC07F1100207F10403104619461F
:1013B00001F0ACF90346002B2CD1F86800F0BAF923
:1013C0000346002B20D0FB681B68002B08D1FFF7D9
:1013D00045FCFB685B68184601F082FCFFF750FC97
:1013E000FB6803F124027B681046194601F0EAF815
:1013F000F86800F04FF900F0E7FD0346002B7FF49A
:101400005CAFFFF71FFC59E7F86800F043F900F004
:10141000DBFD53E7F86800F03DF900F0D5FD4FF033
:101420000003184607F12007BD4680BD80B586B091
:1014300000AFF860B9607A604FF000033B614FF095
:10144000280080F31188FB689B6B002B2AD0F8687A
:10145000B96800F0F7F8FB689B6B03F1FF32FB689B
:101460009A63FB685B6CB3F1FF3F11D1FB681B69AA
:10147000002B13D0FB6803F11003184601F0D6F8D7
:101480000346002B0AD07B684FF001021A6005E08A
:10149000FB685B6C03F10102FB685A644FF00103C7
:1014A0007B6102E04FF000037B614FF0000080F3AE
:1014B00011887B69184607F11807BD4680BD00BF3B
:1014C00080B584B000AF7860FFF7C8FB7B689B6B8A
:1014D000FB60FFF7D5FBFB68184607F11007BD4618
:1014E00080BD00BF80B485B000AF78607B689B6B27
:1014F000FB60FB68184607F11407BD4680BC7047C7
:1015000080B582B000AF7860786800F091F97B68B0
:101510001B681846FFF7DCFA7868FFF7D9FA07F17D
:101520000807BD4680BD00BF80B483B000AF7860BF
:101530007B6893F84C30184607F10C07BD4680BC19
:10154000704700BF80B483B000AF78600B46FB707B
:101550007B68FA7883F84C2007F10C07BD4680BC05
:10156000704700BF80B483B000AF78607B6893F8A9
:101570004D30184607F10C07BD4680BC704700BFD0
:1015800080B584B000AFF860B9607A60FB681B6C0E
:10159000002B0DD1FB681B68002B48D1FB685B68F2
:1015A000184601F0F7FBFB684FF000025A603EE07E
:1015B0007B68002B1AD1FB689A68FB681B6C10468D
:1015C000B9681A4601F05CFCFB689A68FB681B6C02
:1015D000D218FB689A60FB689A68FB685B689A425D
:1015E00025D3FB681A68FB689A6020E0FB68DA681C
:1015F000FB681B6C1046B9681A4601F041FCFB6899
:10160000DA68FB681B6CC3F10003D218FB68DA6070
:10161000FB68DA68FB681B689A4208D2FB685A6864
:10162000FB681B6CC3F10003D218FB68DA60FB682F
:101630009B6B03F10102FB689A6307F11007BD463B
:1016400080BD00BF80B582B000AF786039607B6834
:101650001B68002B19D07B68DA687B681B6CD2187A
:101660007B68DA607B68DA687B685B689A4203D3E0
:101670007B681A687B68DA607B68DA687B681B6C59
:10168000386811461A4601F0FBFB07F10807BD4612
:1016900080BD00BF80B582B000AF7860FFF7DEFA92
:1016A00014E07B685B6A002B15D07B6803F1240390
:1016B000184600F0BBFF0346002B01D001F070F884
:1016C0007B689B6C03F1FF327B689A647B689B6C40
:1016D000002BE6DC00E000BF7B684FF0FF329A642D
:1016E000FFF7CEFAFFF7BAFA14E07B681B69002B0C
:1016F00015D07B6803F11003184600F097FF0346EE
:10170000002B01D001F04CF87B685B6C03F1FF32D9
:101710007B685A647B685B6C002BE6DC00E000BFF2
:101720007B684FF0FF325A64FFF7AAFA07F1080707
:10173000BD4680BD80B584B000AF7860FFF78EFAFB
:101740007B689B6B002B14BF00230123FB60FFF71A
:1017500097FAFB68184607F11007BD4680BD00BF29
:1017600080B485B000AF78607B689B6B002B14BFA2
:1017700000230123FB60FB68184607F11407BD46F0
:1017800080BC704780B584B000AF7860FFF766FA20
:101790007B689A6B7B68DB6B9A4214BF0023012342
:1017A000FB60FFF76DFAFB68184607F11007BD46AE
:1017B00080BD00BF80B485B000AF78607B689A6B55
:1017C0007B68DB6B9A4214BF00230123FB60FB683C
:1017D000184607F11407BD4680BC704780B485B039
:1017E00000AF786039604FF00003FB6016E00F4BEC
:1017F000FA6853F83230002B0CD10C4BFA68396878
:1018000043F83210094AFB684FEAC303D3187A68D9
:101810005A6006E0FB6803F10103FB60FB68092BDB
:10182000E5D907F11407BD4680BC70479C4D0010F8
:1018300080B485B000AF78604FF00003FB6013E028
:101840000D4AFB684FEAC303D3185A687B689A4273
:1018500006D1094BFA684FF0000143F8321006E058
:10186000FB6803F10103FB60FB68092BE8D907F172
:101870001407BD4680BC70479C4D001080B58AB0EF
:1018800002AFF860B9603B601346FB80FB881846E6
:10189000396B01F0BDF8B861BB69002B7CD0BB6926
:1018A0001A6BFB8803F1FF334FEA8303D3187B6184
:1018B0007B6923F007037B61FB880093B869B968F3
:1018C000BA6A7B6B00F0AAFF7869F9683A68FFF79B
:1018D0004DF903461A46BB691A60FB6A002B02D019
:1018E000FB6ABA691A60FFF7B9F9374B1B6803F155
:1018F0000102354B1A60354B1B68002B09D1334B65
:10190000BA691A60304B1B68012B0FD100F0C8FF79
:101910000CE02F4B1B68002B08D12C4B1B68DA6A9C
:10192000BB6A9A4202D8294BBA691A60BB69DA6A63
:10193000284B1B689A4203D9BB69DA6A254B1A60A7
:10194000254B1A68BB691A64234B1B6803F101021B
:10195000214B1A60BB69DA6A204B1B689A4203D993
:10196000BB69DA6A1D4B1A60BB69DA6A13464FEA33
:1019700083039B184FEA83031A46194BD218BB699D
:1019800003F1040310461946FFF70EFA4FF0010366
:10199000FB61FFF775F902E04FF0FF33FB61FB6974
:1019A000012B0BD10A4B1B68002B07D0074B1B6880
:1019B000DA6ABB6A9A4201D2FFF744F9FB6918461A
:1019C00007F12007BD4680BD084D0010304C0010C7
:1019D000184D0010104D00102C4D0010144D00102B
:1019E000344C001080B584B000AF7860FFF736F952
:1019F000204B1B687A689A4202D14FF000037B604B
:101A00007B68002B02D11B4B1B6800E07B68FB60EE
:101A1000FB6803F104031846FFF728FAFB689B6A8A
:101A2000002B05D0FB6803F118031846FFF71EFAD8
:101A3000FB6803F1040310481946FFF7B5F90F4B93
:101A40001B6803F101020D4B1A600D4B1B6803F17B
:101A500001020B4B1A60FFF713F90A4B1B68002BAE
:101A600004D07B68002B01D1FFF7ECF807F11007D9
:101A7000BD4680BD304C0010DC4C0010F04C001016
:101A80002C4D0010184D001080B586B000AF786066
:101A900039604FF000037B6100F088FA7B681A68B8
:101AA0003B68D3183B617B681A681D4B1B689A42E0
:101AB0000DD97B681A683B699A4215D9184B1B6887
:101AC0003A699A4210D94FF001037B610CE07B68C0
:101AD0001A683B699A4204D8114B1B683A699A42CA
:101AE00002D94FF001037B617B683A691A607B6918
:101AF000002B09D00B4B1B6803F104031846FFF7BA
:101B0000B5F9386900F04CFF00F05EFAF860FB6848
:101B1000002B01D1FFF796F807F11807BD4680BDED
:101B20000C4D0010304C001080B584B000AF7860D0
:101B30004FF00003FB607B68002B13D000F036FAF7
:101B40000D4B1A687B68D318BB600C4B1B6803F104
:101B500004031846FFF78AF9B86800F021FF00F087
:101B600033FAF860FB68002B01D1FFF76BF807F13F
:101B70001007BD4680BD00BF0C4D0010304C00105A
:101B800080B584B000AF7860FFF768F87B68002B01
:101B900002D1084B1B6800E07B68FB60FB68DB6AD6
:101BA000BB60FFF76DF8BB68184607F11007BD462C
:101BB00080BD00BF304C001080B586B000AF7860AB
:101BC00039604FF000037B613B68042B02D94FF072
:101BD00004033B60FFF742F8394B1B687A689A426E
:101BE00002D14FF000037B607B68002B02D1344BA5
:101BF0001B6800E07B683B613B699B6CFB60FA689B
:101C00003B689A4256D03A68FB689A4206D97B688C
:101C1000002B09D04FF001037B6105E07B68002BAE
:101C200002D14FF001037B613B699A6C3B69DB6A2F
:101C30009A4202D13B693A68DA623B693A689A642F
:101C40003B68C3F105023B699A613B695969FA68CF
:101C500013464FEA83039B184FEA83031A46194B36
:101C6000D318994221D13B6903F104031846FFF7C9
:101C7000FDF83B69DA6A144B1B689A4203D93B6949
:101C8000DA6A114B1A603B69DA6A13464FEA83033A
:101C90009B184FEA83031A460A4BD2183B6903F19B
:101CA000040310461946FFF77FF87B69012B01D129
:101CB000FEF7C8FFFEF7E4FF07F11807BD4680BD39
:101CC000304C0010344C0010144D001080B584B01E
:101CD00000AF7860FEF7C2FF214B1B687A689A421A
:101CE00002D14FF000037B607B68002B02D11C4BBC
:101CF0001B6800E07B68FB60FB6803F10403184687
:101D0000FFF7B4F8FB689B6A002B05D0FB6803F172
:101D100018031846FFF7AAF8FB6803F104031148FB
:101D20001946FFF741F8FEF7ABFF7B68002B13D194
:101D30000D4B1B68002B02D0FEF784FF0CE0094B13
:101D40001A680A4B1B689A4204D1054B4FF00002F7
:101D50001A6001E000F0A4FB07F11007BD4680BD4A
:101D6000304C0010F44C0010184D0010084D0010BD
:101D700080B485B000AF78604FF00003FB607B68F3
:101D8000BB60BB685A690B4B9A420BD1BB689A6A1D
:101D9000094B9A4206D0BB689B6A002B02D14FF0D8
:101DA0000103FB60FB68184607F11407BD4680BCC1
:101DB000704700BFF44C0010C84C001080B584B0D0
:101DC00000AF78607B68FB60FB68002B39D01F4B4D
:101DD0001B68FA689A4234D0FEF740FFF868FFF7B4
:101DE000C7FF0346012B2AD1FB6803F10403184601
:101DF000FFF73CF8FB68DA6A154B1B689A4203D977
:101E0000FB68DA6A124B1A60FB68DA6A13464FEA1B
:101E100083039B184FEA83031A460E4BD218FB68C4
:101E200003F1040310461946FEF7BEFFFB68DA6AA9
:101E3000064B1B68DB6A9A4201D3FEF703FFFEF7ED
:101E40001FFF07F11007BD4680BD00BF304C0010DA
:101E5000144D0010344C001080B586B000AF78608F
:101E60004FF000037B617B683B614FF00003FB6038
:101E70004FF0280080F311883869FFF779FF034697
:101E8000012B37D1204B1B68002B2CD13B69DA6A20
:101E90001E4B1B68DB6A9A4234BF002301237B611F
:101EA0003B6903F104031846FEF7E0FF3B69DA6A79
:101EB000174B1B689A4203D93B69DA6A144B1A60C4
:101EC0003B69DA6A13464FEA83039B184FEA8303A0
:101ED0001A46104BD2183B6903F104031046194609
:101EE000FEF762FF06E03B6903F118030A48194652
:101EF000FEF75AFF4FF0000080F311887B69184607
:101F000007F11807BD4680BD1C4D0010304C001075
:101F1000144D0010344C0010C84C001080B586B031
:101F200004AF164B4FF0000200924FF000020192F6
:101F30004FF0000202924FF000020392104819463F
:101F40004FF050024FF00003FFF798FC78607B6879
:101F5000012B0FD14FF0280080F31188094B4FF06F
:101F600001021A60084B4FF000021A60FEF704FAF3
:101F7000FEF744FE07F10807BD4680BDA832000009
:101F80000D280000184D00100C4D001080B500AF5A
:101F90004FF0280080F31188034B4FF000021A60C5
:101FA000FEF74AFE80BD00BF184D001080B400AFA0
:101FB000044B1B6803F10102024B1A60BD4680BC52
:101FC000704700BF1C4D001090B583B000AF4FF0BC
:101FD00000037B60FEF742FE384B1B6803F1FF32C3
:101FE000364B1A60354B1B68002B5ED1344B1B6897
:101FF000002B5AD04FF000033B602EE0314BDB68E2
:10200000DB681C4604F118031846FEF72FFF04F1A5
:1020100004031846FEF72AFFE26A2B4B1B689A421C
:1020200002D9E26A284B1A60E26A13464FEA830338
:102030009B184FEA83031A46244BD21804F1040379
:1020400010461946FEF7B0FEE26A214B1B68DB6AB8
:102050009A4202D34FF001033B601A4B1B68002BDE
:10206000CCD11C4B1B68002B0FD007E000F078F997
:10207000184B1B6803F1FF32164B1A60154B1B6897
:10208000002BF3D14FF001033B603B68012B03D0E1
:10209000114B1B68012B08D14FF001037B600E4BE5
:1020A0004FF000021A60FEF7CDFDFEF7E9FD7B68F8
:1020B000184607F10C07BD4690BD00BF1C4D00102F
:1020C000084D0010C84C0010144D0010344C001086
:1020D000304C0010204D0010244D001080B582B00F
:1020E00000AFFEF7BBFD054B1B687B60FEF7C8FD2C
:1020F0007B68184607F10807BD4680BD0C4D0010EF
:1021000080B483B000AF4FF000037B604FF0280035
:1021100080F31188064B1B683B604FF0000080F392
:1021200011883B68184607F10C07BD4680BC704714
:102130000C4D001080B400AF024B1B681846BD4622
:1021400080BC7047084D001090B585B000AF786036
:10215000FFF72CFF7B684FF000021A707C68204666
:1021600001F012F80346E318184631494FF0030214
:1021700000F086FE2F4B1B6803F10103FB60FB6838
:1021800003F1FF33FB60FA6813464FEA83039B18A1
:102190004FEA83031A46284BD3181B68002B0FD035
:1021A000FA6813464FEA83039B184FEA83031A46E3
:1021B000214BD318786819464FF0520200F062FCA8
:1021C000FB68002BDBD11D4B1B681B68002B07D065
:1021D0001A4B1B68786819464FF0420200F052FC17
:1021E000174B1B681B68002B07D0154B1B687868C2
:1021F00019464FF0420200F045FC124B1B68002BC1
:1022000005D078680F494FF0440200F03BFC0E4BBC
:102210001B68002B05D078680B494FF0530200F083
:1022200031FCFFF7D1FE07F11407BD4690BD00BF9A
:10223000B0320000104D0010344C0010C04C0010A3
:10224000C44C0010DC4C0010F44C001090B585B06C
:1022500000AF7860FFF7AAFE4FF040239B68BB6099
:10226000BA68374BA3FB02134FEA5313BB607B687A
:102270004FF000021A707C68204600F085FF03468C
:10228000E31818462F494FF0030200F0F9FD2E4BDA
:102290001B6803F10103FB60FB6803F1FF33FB6084
:1022A000FA6813464FEA83039B184FEA83031A46E2
:1022B000264BD3181B68002B0ED0FA6813464FEA42
:1022C00083039B184FEA83031A46204BD318786880
:1022D0001946BA6800F034FCFB68002BDCD11C4BBB
:1022E0001B681B68002B06D0194B1B6878681946C1
:1022F000BA6800F025FC174B1B681B68002B06D042
:10230000144B1B6878681946BA6800F019FC124B28
:102310001B68002B04D078680F49BA6800F010FCE5
:102320000E4B1B68002B04D078680C49BA6800F08B
:1023300007FCFFF749FE07F11407BD4690BD00BF3B
:102340001F85EB51B0320000104D0010344C0010CE
:10235000C04C0010C44C0010DC4C0010F44C0010B9
:1023600080B584B000AF454B1B68002B7AD1444B3D
:102370001B6803F10102424B1A60414B1B68002BA2
:1023800022D1404B1B68FB603F4B1A683D4B1A60E3
:102390003D4BFA681A603D4B1B6803F101023B4B51
:1023A0001A60384B1B681B68002B04D1384B4FF068
:1023B000FF321A6008E0334B1B68DB68DB68BB60E8
:1023C000BB685A68324B1A602D4B1A68304B1B6839
:1023D0009A424DD32B4B1B681B68002B04D12C4B0E
:1023E0004FF0FF321A6043E0264B1B68DB68DB6866
:1023F000BB60BB685B687B60214B1A687B689A4254
:1024000003D2234B7A681A6032E0BB6803F10403FD
:102410001846FEF72BFDBB689B6A002B05D0BB68F6
:1024200003F118031846FEF721FDBB68DA6A194B61
:102430001B689A4203D9BB68DA6A164B1A60BB68FC
:10244000DA6A13464FEA83039B184FEA83031A465E
:10245000114BD218BB6803F1040310461946FEF76E
:10246000A3FCB7E70D4B1B6803F101020B4B1A608D
:102470000A4B1B6807F11007BD4680BD1C4D0010BC
:102480000C4D0010C04C0010C44C0010284D001022
:102490000C000010144D0010344C0010204D0010A2
:1024A00080B582B000AF404B1B68002B04D03F4B7F
:1024B0004FF001021A6073E04FF040239B687B608D
:1024C0003B4B1B68D96C3B4A12687868821A8A18A1
:1024D000DA64384B7A681A60354B1B681A68344BDB
:1024E0001B681B6B9A420AD8314B1B681A46304B4B
:1024F0001B6803F1340310461946FDF737FF2C4BD8
:102500001B681B6B18462C494FF0140200F086FC28
:102510000346002B12D0264B1B681A46244B1B681F
:1025200003F1340310461946FDF720FF07E0234B63
:102530001B6803F1FF32214B1A6000E000BF1F4B04
:102540001A6813464FEA83039B184FEA83031A461F
:102550001B4BD3181B68002BE9D0184B1A68134685
:102560004FEA83039B184FEA83031A46144BD31890
:102570003B603B685B685A683B685A603B685A68D6
:102580003B6803F108039A4204D13B685B685A68D0
:102590003B685A603B685B68DB681A46044B1A600C
:1025A00007F10807BD4680BD1C4D0010244D0010EA
:1025B000304C0010644D0010F8320000144D001033
:1025C000344C001080B584B000AF78603960144B93
:1025D0001B6803F1180378681946FEF70DFC104BD1
:1025E0001B6803F104031846FEF740FC3B68B3F197
:1025F000FF3F08D10A4B1B6803F104030948194641
:10260000FEF7D2FB07E0084B1A683B68D318FB6063
:10261000F86800F0C5F907F11007BD4680BD00BF9E
:10262000304C0010F44C00100C4D001080B584B0FC
:1026300000AF78607B68DB68DB68BB60BB6803F178
:1026400018031846FEF712FC204B1B68002B22D102
:10265000BB6803F104031846FEF708FCBB68DA6A9E
:102660001B4B1B689A4203D9BB68DA6A184B1A6085
:10267000BB68DA6A13464FEA83039B184FEA830369
:102680001A46144BD218BB6803F1040310461946CE
:10269000FEF78AFB06E0BB6803F118030E481946F3
:1026A000FEF782FBBB68DA6A0C4B1B68DB6A9A4256
:1026B00003D34FF00103FB6002E04FF00003FB6027
:1026C000FB68184607F11007BD4680BD1C4D001081
:1026D000144D0010344C0010C84C0010304C001049
:1026E00080B483B000AF7860064B1A687B681A60CC
:1026F000054B1A687B685A6007F10C07BD4680BC21
:10270000704700BF284D00100C4D001080B584B0FC
:1027100000AF78603960FEF7A1FA3B681B68B3F13F
:10272000FF3F03D14FF00003FB602CE07B681A6889
:10273000194B1B689A4209D07B685A68174B1B6873
:102740009A4203D84FF00103FB601CE0134B1A6858
:102750007B685B68D21A3B681B689A4210D23B6860
:102760001A687B6859680D4B1B68CB1AD2183B68F6
:102770001A607868FFF7B4FF4FF00003FB6002E0D7
:102780004FF00103FB60FEF77BFAFB68184607F188
:102790001007BD4680BD00BF284D00100C4D001035
:1027A00080B400AF034B4FF001021A60BD4680BCFD
:1027B000704700BF244D001080B485B000AF786032
:1027C0007B68002B05D07B68BB60BB685B6CFB60E3
:1027D00002E04FF00003FB60FB68184607F11407A6
:1027E000BD4680BC704700BF80B485B000AF786044
:1027F00039607B68002B04D07B68FB60FB683A681B
:102800005A6407F11407BD4680BC704780B582B09A
:1028100000AF786000F088F8FCE700BF80B584B0B6
:1028200000AFF860B9607A603B60FB6803F1340385
:102830001A46BB68104619464FF00C0200F0D4FC53
:10284000FB684FF0000283F83F207B68042B02D91D
:102850004FF004037B60FB687A68DA62FB687A6891
:102860009A64FB6803F104031846FEF78FFAFB68CD
:1028700003F118031846FEF789FAFB68FA681A6133
:102880007B68C3F10502FB689A61FB68FA685A62CB
:10289000FB684FF00002DA6407F11007BD4680BD07
:1028A00080B582B000AF4FF000037B6010E07A6823
:1028B00013464FEA83039B184FEA83031A46124BD1
:1028C000D3181846FEF73EFA7B6803F101037B60DC
:1028D0007B68042BEBD90D48FEF734FA0C48FEF761
:1028E00031FA0C48FEF72EFA0B48FEF72BFA0B488C
:1028F000FEF728FA0A4B054A1A600A4B044A1A6086
:1029000007F10807BD4680BD344C0010984C0010FC
:10291000AC4C0010C84C0010DC4C0010F44C001003
:10292000C04C0010C44C001080B582B000AF194BF1
:102930001B68002B2AD0FFF739FB174B1B68002BB5
:1029400014BF002301237B60FFF73EFB7B68002B55
:102950001CD1FEF783F9104BDB68DB683B603B68FA
:1029600003F104031846FEF781FA0C4B1B6803F1D0
:10297000FF320A4B1A60074B1B6803F1FF32054B0D
:102980001A60FEF77DF9386800F08AF907F1080748
:10299000BD4680BDF04C0010DC4C0010084D00100E
:1029A00080B582B000AF7860144B1B687A685A60BB
:1029B000134B1B687A689A420AD2124B1A680F4B63
:1029C0001B6803F1040310461946FEF715FA11E0DF
:1029D0000D4B1A68094B1B6803F104031046194696
:1029E000FEF70AFA094B1B687A689A4202D2074B33
:1029F0007A681A6007F10807BD4680BD304C0010A8
:102A00000C4D0010C44C0010C04C00100C00001005
:102A100080B584B000AF03463960FB804FF05000B2
:102A2000FDF7A8FF0346FB60FB68002B23D03B6843
:102A3000002B07D1FB884FEA83031846FDF79AFF66
:102A4000034600E03B68FA681363FB681B6B002BCE
:102A500006D1F868FEF73CF84FF00003FB600AE08F
:102A6000FB681A6BFB884FEA830310464FF0A50101
:102A70001A4600F0ADFAFB68184607F11007BD468C
:102A800080BD00BF90B58FB004AFF860B960134649
:102A9000FB71BB687B627B6A5B685A687B6A5A60C1
:102AA0007B6A5A687B6A03F108039A4204D17B6A05
:102AB0005B685A687B6A5A607B6A5B68DB683B626A
:102AC000BB68FB61FB695B685A68FB695A60FB691C
:102AD0005A68FB6903F108039A4204D1FB695B68F9
:102AE0005A68FB695A60FB695B68DB68BB61BB695C
:102AF0001B6B184600F09CF80346FB82BB6903F190
:102B0000340297F90730B969CC6AF88AB969096C57
:102B100000940190029108480849FDF7A1FEFB6866
:102B20001846054900F0AEFABA693B6A9A42C7D125
:102B300007F12C07BD4690BD684D0010B43200006F
:102B400080B58CB002AFF860B9607A60BB687B6218
:102B50007B6A5B685A687B6A5A607B6A5A687B6AE0
:102B600003F108039A4204D17B6A5B685A687B6A66
:102B70005A607B6A5B68DB683B62BB68FB61FB6930
:102B80005B685A68FB695A60FB695A68FB6903F124
:102B900008039A4204D1FB695B685A68FB695A6072
:102BA000FB695B68DB68BB617B68002B2FD0BB696E
:102BB000DB6C002B08D1BB6903F1340318481949B9
:102BC0001A46FDF74DFE1DE0BB69DA6C7B68B2FB6F
:102BD000F3F37B617B69002B0BD0BB6903F13402FB
:102BE000BB69DB6C796900910D480F49FDF738FE30
:102BF00008E0BB6903F13402BB69DB6C08480B4990
:102C0000FDF72EFEFB681846054900F03BFABA694D
:102C10003B6A9A42B1D107F12807BD4680BD00BF8B
:102C2000304D0010C8320000D8320000E8320000F9
:102C300090B482B000AF78604FF0000406E07B688B
:102C400003F101037B6004F101039CB27B681B78F4
:102C5000A52BF4D04FEA94039CB22346184607F103
:102C60000807BD4690BC704780B586B000AF78605D
:102C70007B68002B02D1094B1B6800E07B687B61FD
:102C80007B691B6B3B613869FFF7D2FF0346FB6032
:102C9000FB68184607F11807BD4680BD304C001090
:102CA00080B582B000AF78607B681B6B1846FDF77B
:102CB0000FFF7868FDF70CFF07F10807BD4680BDE0
:102CC00080B483B000AF054B1B687B607B681846FF
:102CD00007F10C07BD4680BC704700BF304C0010A8
:102CE00080B584B000AF78607B68FB60FB68DA6A0F
:102CF000254B1B68DB6A9A4242D2234B1B68DB6A76
:102D0000C3F10502FB689A61FB685969FB68DA6ADE
:102D100013464FEA83039B184FEA83031A461B4B63
:102D2000D318994227D1FB6803F104031846FEF734
:102D30009DF8154B1B68DA6AFB68DA62FB68DA6A91
:102D4000134B1B689A4203D9FB68DA6A104B1A606E
:102D5000FB68DA6A13464FEA83039B184FEA830342
:102D60001A460A4BD218FB6803F1040310461946B1
:102D7000FEF71AF804E0044B1B68DA6AFB68DA62B3
:102D800007F11007BD4680BD304C0010344C0010D8
:102D9000144D001080B584B000AF78607B68FB6094
:102DA0007B68002B31D0FB68DA6AFB689B6C9A4227
:102DB0002BD0FB6803F104031846FEF757F8FB68B5
:102DC0009A6CFB68DA62FB68DB6AC3F10502FB6898
:102DD0009A61FB68DA6A0F4B1B689A4203D9FB6859
:102DE000DA6A0C4B1A60FB68DA6A13464FEA83030F
:102DF0009B184FEA83031A46074BD218FB6803F16E
:102E0000040310461946FDF7CFFF07F11007BD4632
:102E100080BD00BF144D0010344C0010032A70B464
:102E200004460D4626D941EA000313F0030F13D0E0
:102E300020782B78984208BF294606D01EE014F867
:102E4000010F11F8013F984218D1012A02F1FF3217
:102E5000F5D1002070BC70470B46044651F8045B66
:102E600050F8046BAE4204D1043A0446032A0B46E0
:102E7000F2D81D461046002ADAD1EBE7C01AE9E77E
:102E8000032A2DE9F00109D82AB10023CC5CC454EF
:102E900001339342FAD1BDE8F00170470B46821826
:102EA000014603E02478013301F8014B11F0030FD0
:102EB0001C46F7D113F003055DD06E42C5F1040C3A
:102EC000ED009B594FEACC0C08E00434A7593B466F
:102ED00007FA0CF748EA070741F8047B571A23FA68
:102EE00005F8032FF1DC03E014F8013B01F8013B86
:102EF0008A42F9D8CFE753F8404C41F8404C53F898
:102F00003C4C41F83C4C53F8384C41F8384C53F8A1
:102F1000344C41F8344C53F8304C41F8304C53F8B1
:102F20002C4C41F82C4C53F8284C41F8284C53F8C1
:102F3000244C41F8244C53F8204C41F8204C53F8D1
:102F40001C4C41F81C4C53F8184C41F8184C53F8E1
:102F5000144C41F8144C53F8104C41F8104C53F8F1
:102F60000C4C41F80C4C53F8084C41F8084C53F801
:102F7000044C41F8044C561A1D460C46403340316F
:102F80003F2EB8DC2B460FE053F8101C44F8101C01
:102F900053F80C1C44F80C1C53F8081C44F8081C8B
:102FA00053F8041C44F8041C161B21461D4610341B
:102FB00010330F2EE8DC2B4602E0246841F8044B66
:102FC000551A1C46032D03F10403F6DC90E700BFFD
:102FD000032AC9B270B408D82AB10346121803F8FC
:102FE000011B9342FBD170BC70478218044601E07C
:102FF00004F8011B14F0030FFAD14FF0013303FB67
:1030000001F31FE044F8403C44F83C3C44F8383CB1
:1030100044F8343C44F8303C44F82C3C44F8283C18
:1030200044F8243C44F8203C44F81C3C44F8183C48
:1030300044F8143C44F8103C44F80C3C44F8083C78
:1030400044F8043C161B254640343F2EDADC2C465F
:1030500007E044F8103C44F80C3C44F8083C44F8C1
:10306000043C161B254610340F2EF2DC01E045F817
:10307000043B541B032CFADC01E005F8011B9542CC
:10308000FBD3B0E710F0030F38B5044612D1036844
:10309000A3F1013222EA030313F0803F0AD1031D9A
:1030A000184653F8042BA2F1013525EA020212F06A
:1030B000803FF5D003782BB1431C184613F8012B41
:1030C000002AFAD100F002F8204638BD80EA010259
:1030D000844612F0030F4FD111F0030F32D14DF897
:1030E000044D11F0040F51F8043B0BD0A3F1013251
:1030F0009A4312F0803F04BF4CF8043B51F8043B64
:1031000016D100BF51F8044BA3F101329A4312F0DB
:10311000803FA4F101320BD14CF8043BA24312F0E2
:10312000803F04BF51F8043B4CF8044BEAD02346DF
:103130000CF8013B13F0FF0F4FEA3323F8D15DF891
:10314000044B704711F0010F06D011F8012B0CF859
:10315000012B002A08BF704711F0020FBFD031F8D1
:10316000022B12F0FF0F16BF2CF8022B8CF8002058
:1031700012F47F4FB3D1704711F8012B0CF8012BDB
:10318000002AF9D1704700BF20F0030110F00300BE
:10319000C0F1000051F8043B00F1040C4FEACC0CE4
:1031A0006FF000021CBF22FA0CF213434FF0010C27
:1031B0004CEA0C2C4CEA0C4CA3EB0C0222EA030266
:1031C00012EACC1204BF51F8043B0430F4D013F0DF
:1031D000FF0F1FBF013013F47F4F013013F47F0F37
:1031E00018BF0130704700BF41EA000313F0030F1E
:1031F0000B4670B414BF00240124032A94BF00249A
:1032000004F001040546D4B9BAB10E782B46013A50
:1032100003F8016B56B1AC1C7AB111F8015F23467B
:10322000013A04F8015C0134002DF5D12AB19A1855
:10323000002103F8011B9342FBD170BC7047194673
:1032400053F8044BA4F1013626EA040616F0803F39
:10325000DAD1043A45F8044B032A1946EFD8D3E7EC
:10326000416C6C207461736B7320617265206578AA
:1032700065637574696E6720776974686F7574200B
:103280006572726F722E00004C45440025642E2535
:10329000642E25642E256400286E756C6C29000050
:1032A00010000000F800000049444C4500000000F8
:1032B0000D0A00002573090925630925750925757F
:1032C0000925750D0A000000257309093009093028
:1032D00025250D0A00000000257309092575090937
:1032E000257525250D0A000025730909257509098D
:1032F0003C3125250D0A0000A5A5A5A5A5A5A5A5D8
:0C330000A5A5A5A5A5A5A5A5A5A5A5A505
:10330C0060320000004C0000AAAAAAAAFFFFFFFF2F
:04000003000008E110
:00000001FF
